S00D0000696D6167652E7372656314
S315202C080000000420BD0C2C204D0D2C20510D2C200D
S315202C0810490D2C20490D2C20490D2C2000000000A0
S315202C0820000000000000000000000000B1BB2C20BE
S315202C0830490D2C200000000081BC2C20E5BC2C204E
S315202C0840610D2C20650D2C20690D2C206D0D2C2056
S315202C0850710D2C20750D2C20790D2C207D0D2C2006
S315202C0860810D2C20850D2C20890D2C208D0D2C20B6
S315202C0870910D2C20950D2C20990D2C209D0D2C2066
S315202C0880A10D2C20490D2C20490D2C20490D2C2036
S315202C0890F95B2C20075C2C20155C2C20235C2C202F
S315202C08A0315C2C203F5C2C204D5C2C205B5C2C203E
S315202C08B0C50D2C20C90D2C20CD0D2C20D10D2C2056
S315202C08C0D50D2C20D90D2C20DD0D2C20E10D2C2006
S315202C08D0E50D2C20E90D2C20ED0D2C20F10D2C20B6
S315202C08E0F50D2C20F90D2C20FD0D2C20010E2C2065
S315202C08F0050E2C20090E2C200D0E2C20110E2C2012
S315202C0900150E2C20190E2C20490D2C20490D2C206F
S315202C0910490D2C20490D2C20490D2C20490D2C20FD
S315202C0920490D2C20490D2C20490D2C20490D2C20ED
S315202C0930490D2C20490D2C20490D2C20490D2C20DD
S315202C0940490D2C20490D2C20490D2C20490D2C20CD
S315202C0950490D2C20490D2C20490D2C20490D2C20BD
S315202C0960490D2C20490D2C20490D2C201D0E2C20D8
S315202C0970210E2C20250E2C20290E2C202D0E2C2021
S315202C0980310E2C20350E2C20390E2C20490D2C20C6
S315202C0990490D2C20490D2C20490D2C20490D2C207D
S315202C09A0490D2C20490D2C20490D2C20490D2C206D
S315202C09B0490D2C20490D2C20490D2C20490D2C205D
S315202C09C0490D2C203D0E2C20490D2C20490D2C2058
S315202C09D0490D2C20490D2C20490D2C20490D2C203D
S315202C09E0490D2C20490D2C20490D2C20490D2C202D
S315202C09F0490D2C20490D2C20410E2C20450E2C2027
S315202C0A00490D2C20490D2C20490D2C20490D2C200C
S315202C0A10490D2C20490D2C20490D2C20490D2C20FC
S315202C0A20A5252C20490D2C20490D2C20490D2C2078
S315202C0A30490D2C20490D2C20490D2C20490D2C20DC
S315202C0A40490D2C20490D2C20490E2C204D0E2C20C6
S315202C0A50490D2C20510E2C20550E2C20490D2C20A6
S315202C0A60F11E2C20590E2C205D0E2C20610E2C20B4
S315202C0A70650E2C20690E2C206D0E2C20490D2C2039
S315202C0A80490D2C20490D2C20490D2C20490D2C208C
S315202C0A90490D2C20490D2C20490D2C20490D2C207C
S315202C0AA0490D2C20490D2C20490D2C20490D2C206C
S315202C0AB0490D2C20490D2C20490D2C20490D2C205C
S315202C0AC0490D2C20490D2C20490D2C20490D2C204C
S315202C0AD0490D2C20490D2C20490D2C20490D2C203C
S315202C0AE0490D2C20490D2C20490D2C20490D2C202C
S315202C0AF0490D2C20490D2C20490D2C20490D2C201C
S315202C0B00490D2C20490D2C20490D2C20490D2C200B
S315202C0B10490D2C20490D2C20490D2C20490D2C20FB
S315202C0B20490D2C20490D2C20490D2C20490D2C20EB
S315202C0B30490D2C20490D2C20490D2C20490D2C20DB
S315202C0B40490D2C20490D2C20490D2C20490D2C20CB
S315202C0B50490D2C20490D2C20490D2C20490D2C20BB
S315202C0B60710E2C20750E2C20790E2C207D0E2C20EF
S315202C0B70490D2C20490D2C20490D2C20490D2C209B
S315202C0B80490D2C20490D2C20810E2C20850E2C2015
S315202C0B90890E2C208D0E2C20490D2C20490D2C20F5
S315202C0BA0910E2C20950E2C20490D2C20490D2C20D5
S315202C0BB0490D2C20490D2C20490D2C20490D2C205B
S315202C0BC0490D2C20490D2C20490D2C20490D2C204B
S315202C0BD0490D2C20490D2C20490D2C20490D2C203B
S315202C0BE0490D2C20490D2C20490D2C20490D2C202B
S315202C0BF0490D2C20490D2C20490D2C20FFFFFFFFC1
S315202C0C0010B5054C237833B9044B13B10448AFF3F4
S315202C0C1000800123237010BD6C8200200000000070
S315202C0C205C782D2008B5034B1BB103490348AFF341
S315202C0C30008008BD00000000708200205C782D20EA
S315202C0C40A3F5803A704700BF174B002B08BF134BD8
S315202C0C509D46FFF7F5FF00218B460F461348144A75
S315202C0C60121A10F0DDFE0E4B002B00D098470D4BA0
S315202C0C70002B00D098470020002104000D000D48A1
S315202C0C80002802D00C48AFF3008010F05BFE200029
S315202C0C90290000F0A9FD10F039FD00BF0000080046
S315202C0CA00000000000000000000004206C820020C0
S315202C0CB03C950020000000000000000072B616486B
S315202C0CC0164901600A6882F3088815488047154919
S315202C0CD0154A164B9A42BEBF51F8040B42F8040B08
S315202C0CE0F8E7134A134B9A42BEBF51F8040B42F82D
S315202C0CF0040BF8E7104B00209A42BCBF42F8040B99
S315202C0D00FAE70E490E4A00209142BCBF41F8040B4B
S315202C0D10FAE762B60B48804708ED00E000082C2045
S315202C0D20BD262C2088782D20008000206C82002047
S315202C0D300000002000000020781E00206C8200205D
S315202C0D403C950020490C2C20FFF7FEBF524800472B
S315202C0D5052480047524800475248004752480047BD
S315202C0D6052480047524800475248004752480047AD
S315202C0D70524800475248004752480047524800479D
S315202C0D80524800475248004752480047524800478D
S315202C0D90524800475248004752480047524800477D
S315202C0DA0524800475248004752480047524800476D
S315202C0DB0524800475248004752480047524800475D
S315202C0DC0524800475248004752480047524800474D
S315202C0DD0524800475248004752480047524800473D
S315202C0DE0524800475248004752480047524800472D
S315202C0DF0524800475248004752480047524800471D
S315202C0E00524800475248004752480047524800470C
S315202C0E1052480047524800475248004752480047FC
S315202C0E2052480047524800475248004752480047EC
S315202C0E3052480047524800475248004752480047DC
S315202C0E4052480047524800475248004752480047CC
S315202C0E5052480047524800475248004752480047BC
S315202C0E6052480047524800475248004752480047AC
S315202C0E70524800475248004752480047524800479C
S315202C0E80524800475248004752480047524800478C
S315202C0E9052480047524800474D0D2C20510D2C20EE
S315202C0EA0B1BB2C2081BC2C20E5BC2C2045722C20BF
S315202C0EB07D722C20B5722C20ED722C2025732C20A3
S315202C0EC05D732C2095732C20CD732C2005742C200F
S315202C0ED03D742C2075742C20AD742C20E5742C207C
S315202C0EE01D752C2055752C208D752C20490D2C20CC
S315202C0EF0C9832C20E9832C2009842C2029842C207E
S315202C0F0049842C2069842C2089842C20A9842C206B
S315202C0F10C9842C20E9842C2009852C2029852C2059
S315202C0F20B57E2C20C17E2C20CD7E2C20D97E2C202B
S315202C0F30E57E2C20F17E2C201D7F2C20517F2C20F1
S315202C0F40857F2C20B97F2C20ED7F2C2021802C20D6
S315202C0F50490D2C20490D2C20490D2C20490D2C20B7
S315202C0F60490D2C20490D2C20490D2C2099872C20DD
S315202C0F70E9872C2075882C2039882C20490D2C206B
S315202C0F80490D2C20490D2C20490D2C20490D2C2087
S315202C0F90490D2C204D7E2C20490D2C20490D2C2002
S315202C0FA0490D2C2021772C2035772C205D772C2051
S315202C0FB071772C2049772C2085772C20490D2C20B5
S315202C0FC0490D2C2049852C20490D2C20490D2C20CF
S315202C0FD0490D2C20490D2C20490D2C20490D2C2037
S315202C0FE0490D2C2053B94AB9002908BF00281CBF0B
S315202C0FF04FF0FF314FF0FF3000F082B9ADF1080CE5
S315202C10006DE904CE00F01AF8DDF804E0DDE90223C0
S315202C101004B07047430803F05533C01A830803F0F5
S315202C1020333300F03330184400EB101000F00F301F
S315202C103000EB002000EB0040000E70472DE9F04716
S315202C1040089D04468C46002B40F083808A42174606
S315202C105047D9B2FA82F242B1C2F1200024FA00F02A
S315202C10609140974040EA010C94404FEA1748230CB4
S315202C1070BCFBF8F61FFA87FE08FB16C143EA014390
S315202C108006FB0EF1994209D9FB1806F1FF3080F0A8
S315202C10901981994240F21681023E3B445B1AA4B236
S315202C10A0B3FBF8F008FB103344EA034400FB0EFE96
S315202C10B0A64509D93C1900F1FF3380F00581A645B8
S315202C10C040F2028102383C4440EA0640A4EB0E044E
S315202C10D000261DB1D4400023C5E900433146BDE886
S315202C10E0F08702B9FFDEB2FA82F2002A50D1CB1B4E
S315202C10F04FEA174E1FFA87F80126B3FBFEFC210C6C
S315202C11000EFB1C3341EA034108FB0CF38B4207D917
S315202C111079180CF1FF3002D28B4200F2E9808446FA
S315202C1120C91AA3B2B1FBFEF00EFB101143EA0144FF
S315202C113008FB00F8A04507D93C1900F1FF3302D251
S315202C1140A04500F2D9801846A4EB080440EA0C40AE
S315202C1150BFE78B4209D9002D00F0B1800026C5E9C6
S315202C1160000130463146BDE8F087B3FA83F6002ECF
S315202C11704AD18B4202D3824200F2B880841A61EB88
S315202C1180030101208C46002DA8D0C5E9004CA5E7EB
S315202C1190C2F1200320FA03F6974001FA02F04FEA17
S315202C11A0174ED9403043030CB1FBFEF61FFA87F8B5
S315202C11B00EFB161143EA014306FB08F1994204FA69
S315202C11C002F409D9FB1806F1FF3C80F08D80994258
S315202C11D040F28A80023E3B445B1A81B2B3FBFEF07E
S315202C11E00EFB103341EA034100FB08F38B4207D94F
S315202C11F0791800F1FF3C73D28B4271D902383944CD
S315202C1200CB1A40EA064678E7C6F1200C03FA06F4F8
S315202C121022FA0CF31C4320FA0CF701FA06F34FEAB8
S315202C1220144E21FA0CF11F433B0CB1FBFEF91FFA8D
S315202C123084F80EFB191143EA014109FB08FA8A4569
S315202C124002FA06F200FA06F308D9611809F1FF30E2
S315202C125048D28A4546D9A9F102092144A1EB0A0193
S315202C1260BFB2B1FBFEF00EFB101147EA014700FB83
S315202C127008F8B84507D9E71900F1FF312ED2B84521
S315202C12802CD90238274440EA0940A7EB0807A0FBB3
S315202C129002894F45C64649461AD317D05DB1B3EBC2
S315202C12A00E0267EB010707FA0CFCF2404CEA02020D
S315202C12B0F740C5E9002700263146BDE8F0872E46A3
S315202C12C028460BE70646E9E61846FDE64345E5D2D1
S315202C12D0B8EB020E69EB04010138DFE70846D2E7AA
S315202C12E060468DE78146B9E7664675E730464AE77C
S315202C12F0ACF1020C394413E702383C4424E700BFF6
S315202C1300704700BF00000000000000000000000015
S315202C131001F0FF01102A2BDB10F0070F08D010F854
S315202C1320013B013A8B422DD010F0070F42B3F6D158
S315202C1330F0B441EA012141EA014122F007047FF071
S315202C134000070023F0E80256083C85EA010586EAC8
S315202C1350010685FA47F5A3FA87F586FA47F6A5FA04
S315202C136087F68EB9EED1F0BC01F0FF0102F0070210
S315202C137032B110F8013B013A83EA010313B1F8D1BB
S315202C13800020704701387047002D06BF354603389C
S315202C1390073815F0010F07D1013015F4807F02BFD5
S315202C13A0013015F4C03F0130F0BC0138704700BF26
S315202C13B0034613F8012B002AFBD1181A0138704743
S315202C13C0014B1860704700BF80870020FEE703681A
S315202C13D008681847012A03D0022A03D00020704718
S315202C13E00160FBE70B680360F8E710B40C46036832
S315202C13F0116820685DF8044B1847012A03D0022A6D
S315202C140003D0002070470160FBE70B680360F8E7E8
S315202C141007B50023032205490548CDE900234FF4BF
S315202C142061720BF0BFFC03B05DF804FB70452D20D8
S315202C14304D162C2070B500238AB001398DF80F302B
S315202C1440062900F2BA80DFE801F0380704B8B8B8CC
S315202C1450380005200AB070BD55686B1C1ED0146848
S315202C146000235748032126781A46009300680CF04F
S315202C147099FB062E12D8DFE806F004375F92989552
S315202C14809C00042D05D84F4B3D214F4A4F4810F038
S315202C149011F94F4B1B7893B1012B17D04D4D0123AE
S315202C14A04D4C0DF10F022978206809F07EFE402341
S315202C14B04A4AA979206809F093FE0020CAE7D4F875
S315202C14C001000FF046FF464B1860E7E7D4F80100E1
S315202C14D0013010F05FFAD4F80120424B0021013262
S315202C14E0186010F09DFAD9E7082D03D83E4B4B21D6
S315202C14F0354ACBE7364B1B78012B0FD0022B11D03C
S315202C1500002BCBD1D4F80530354A106804F10901CB
S315202C1510D4F80120184410F05BFABFE7D4F8053034
S315202C1520304AF2E700F094FAD4F8013004F109029B
S315202C15302E490FF0BFFDB1E7254B1B78012B0FD081
S315202C1540022B26D0002BA9D1019303234FF46172B1
S315202C155027490093224B27481B680BF023FC9DE739
S315202C1560204C04A8216800F091FB049800F0D2FAB4
S315202C157000F06EFA40F2035322681C490FF01CFD32
S315202C1580206810F00FFA002304A823600FF0C6FF62
S315202C159084E700F05DFA15490FF03CFD7EE700F05C
S315202C15A0A1FB7BE700F0ACFB78E76278084B1A703E
S315202C15B074E7012000F050FA70E701204AE700BFBB
S315202C15C0848700207F452D20A6452D20E1452D20E2
S315202C15D074870020388000208087002034870020C4
S315202C15E07C870020788700200B462D20E086002043
S315202C15F070452D204D162C20092808B503D00F28F0
S315202C16000BD0002008BD094940230948094A89796D
S315202C1610006809F0E5FD0120F4E7074B0B60074B2A
S315202C16201B884B60064BDB780B72F4E73880002046
S315202C1630808700203487002054800020768000204C
S315202C16408080002008B10FF062BE704770B504462A
S315202C1650F0B92B4800F0AAFA431C064615D00FF0F9
S315202C166078FE731E054602462146002B03DB013BE2
S315202C167002F8011BF9E732462946214800F0B2FA36
S315202C1680864204D02846FFF7DDFF002004E02C46B6
S315202C16901C4B18680CF020FC0BF0C4FE636A03F07C
S315202C16A07F43B3F1A06F05D0174BDD21174A18487D
S315202C16B010F000F8638D202B03D0164BDE21134A15
S315202C16C0F5E70025A38DAB420FDDE36903EB45132C
S315202C16D0E018E358012B06D1026922B14168C06873
S315202C16E0214410F075F90135ECE7A36998470020C1
S315202C16F00BF098FE2046BDE87040FFF7A3BF00BF35
S315202C170030462D20848700203D462D207A462D20BC
S315202C1710E1452D20A2462D20836810B5044613B111
S315202C1720032201469847204610BD70B5044600F288
S315202C17303C400FF0F3FED4F83054D4F83464AE4247
S315202C174004D028461035FFF7E7FFF8E7D4F8300405
S315202C175008B10FF0DAFDD4F82454D4F82864AE421C
S315202C176004D028461035FFF7D7FFF8E7D4F8240401
S315202C177008B10FF0CAFDD4F8080408B10FF0C5FD46
S315202C1780204670BD10B50B4C2378BFF35B8FDB073F
S315202C17900ED420460FF0BDFD50B1074800F048FB73
S315202C17A020460FF0C2FD054A054903480FF0A8FD37
S315202C17B0014810BD888200208C82002000800020C9
S315202C17C02B172C20064C4FF0805508B5FFF7DAFF47
S315202C17D000F097FB2560BFF34F8FBFF36F8FF5E794
S315202C17E004ED00E00020704770B500208CB000245A
S315202C17F0012601F0C1F8002000F02EF923465A22AA
S315202C180039493A48CDE900640BF0CCFA03AB4FF4B6
S315202C181061723749019304233648009323460BF0F3
S315202C1820C1FA354B22464FF47A7100933348039BE9
S315202C18300CF092F9324B05461860324BDB68C3F319
S315202C18400163B3420CD0304B1B68013308D00BF00C
S315202C1850DFFA234602463146284600940CF0A2F99C
S315202C1860FFF790FF0378294D0133294CDBB2037007
S315202C187063F07F032B70FFF785FF03780133DBB2F0
S315202C188003702A78AB712275E376FFF77BFF4278BB
S315202C1890531CDBB2437083711E4BDA70FFF772FF39
S315202C18A01D4B04AA1D4904931D4B07931D4B0693D0
S315202C18B01D4B08931D4B0B931D4B0A932023CDE9CF
S315202C18C000436B4400F044FD08A8FFF725FF04A82D
S315202C18D0FFF722FFFFF756FF00F070FA0BF062FCA1
S315202C18E000200CB070BD00BFD0462D20CD132C204F
S315202C18F0DA462D20C5172C2011142C20EA462D2013
S315202C1900848700200040C04000002C2038800020F6
S315202C19101880002080800020C1132C2004800020D9
S315202C1920CF132C20D5132C20F9152C20EB132C205F
S315202C1930FB132C20024B1A88024B1A82704700BFAD
S315202C194076800020188000200020704708B5064895
S315202C1950002300681A4619460AF068FC013818BF7D
S315202C19604FF0FF3008BD00BF8887002008B5054BF7
S315202C19704FF0FF3118680AF03FFF013818BF4FF09F
S315202C1980FF3008BD8887002010B50C4600F048FF94
S315202C199020B104F10C0103F04AFB08B16FF00400CE
S315202C19A010BD2DE9F843089C0D4617461E4600F01F
S315202C19B037FF8146A8B10C35AD01B4B1B4F5006F13
S315202C19C0A046324605EBD72128BF4FF4006848465F
S315202C19D0434603F0DCFA20B947444644A4EB0804DA
S315202C19E0EBE76FF00400BDE8F8832046FBE72DE9F2
S315202C19F0F843089C0D4617461E4600F011FF8146DB
S315202C1A00A8B10C35AD01B4B1B4F5006FA046324661
S315202C1A1005EBD72128BF4FF400684846434603F0F0
S315202C1A2075FA20B947444644A4EB0804EBE76FF03B
S315202C1A300400BDE8F8832046FBE7000010B50446D9
S315202C1A40016802480FF0E6FA204610BDE0870020F8
S315202C1A5000487047E087002038B5254C054620687D
S315202C1A6008B10AF0DDFF01200AF0D1FC206008B96C
S315202C1A70002038BD1F4C5422002120460FF0D0FFC9
S315202C1A801D4B4FF400724FF4003163601B4BA36047
S315202C1A901B4BE3601B4B23611B4B63611B4BC4E924
S315202C1AA00912A361FA224FF40063C4E90733C4E96F
S315202C1AB00B2363633DB90F4915480FF08DF9002888
S315202C1AC008DB0120D5E7214611480FF017F900280D
S315202C1AD0F1DACDE707490E480FF010F90028C7DBBD
S315202C1AE004490B480FF078F9C043C00FC1E700BF5B
S315202C1AF0888700208C870020EF192C20A3192C20D6
S315202C1B0089192C2049192C206D192C204D192C2063
S315202C1B10E08700202DE9F743234F0446FFF748FCA6
S315202C1B200646FB6E834235D3421C4FF000084FF0FD
S315202C1B302F09104601920FF00CFC019A0546002124
S315202C1B400FF06EFF21460124324628460FF040FF27
S315202C1B50B44210D22B5D2F2B0BD12946384605F8B3
S315202C1B6004800FF0F9FA002801DA113017D105F884
S315202C1B7004900134ECE729460B480FF0EDFA041EAD
S315202C1B800FDA14F1110F14BF0024012428460FF06C
S315202C1B90BEFB00E00024204603B0BDE8F0830024E1
S315202C1BA0F4E70124F2E700BFE087002010B596B0B9
S315202C1BB0024601230A4801A90FF0FEF900280BDB67
S315202C1BC001A9074800910FF09FFA04466846FFF7B3
S315202C1BD035FF204616B010BD4FF0FF34F9E700BF75
S315202C1BE0E087002030B597B00C46154601230246D7
S315202C1BF001A910480FF0E0F9002818DB01A90D489F
S315202C1C0000910FF081FA031E01A906DA00246846FA
S315202C1C10FFF714FF204617B030BDAB4222460548AD
S315202C1C2028BF2B460FF01CFA041EEFDBEFE700240F
S315202C1C30F0E700BFE087002000F1080373B50446C7
S315202C1C400D460360E1B10846FFF7B2FB0F2805EBE2
S315202C1C500006019007D9002201A920460FF03CFC52
S315202C1C60019B2060A3603246294620680FF075FC24
S315202C1C70019B2268002120466360D15402B070BD9E
S315202C1C8001480FF06BFB00BFF4462D2010B588B011
S315202C1C90044601AA02A8FFF7CFFF039B53B901AA3A
S315202C1CA00E492046FFF7C8FF02A80FF037FC204626
S315202C1CB008B010BD4FF0FF322F2102A80FF07AFC6E
S315202C1CC0421C0346EBD010B901AA0549E9E70022AC
S315202C1CD002A920460FF0CAFCE6E700BFBC632D20E4
S315202C1CE01E472D20054B07B5019306F03BFD01A879
S315202C1CF006F04CFD03B05DF804FB00BF000010EB92
S315202C1D00024A936B43F04003936370470000C9400B
S315202C1D10024BD3F80009D3F81019704700C0CA40DB
S315202C1D2030B589B00446FFF7F3FF144A0B460090D2
S315202C1D30112103A810F098FD04F1080303A82360B1
S315202C1D40FFF736FB03AB1028029003EB000507D1D7
S315202C1D50002202A920460FF0BFFB029B2060A36025
S315202C1D602A4603A920680FF0F8FB029B2268002143
S315202C1D7020466360D15409B030BD00BF20472D20AA
S315202C1D8070B50C680D460646FFF712FB032301306F
S315202C1D9000214000637002232070701E6B60E318B4
S315202C1DA010F8012F02333AB103F8022C03F8011C48
S315202C1DB06A6802326A60F3E770BD000038B5D0F845
S315202C1DC008140446D0F80C34154A5B1AC0F814149F
S315202C1DD000F214419B105343124A80F81C34C0F84D
S315202C1DE0182400F58462022002F03CFF28B101461B
S315202C1DF00D4810F073FC002038BD1D2005F028F866
S315202C1E0001464CF2503005F019F9D4F8200407F08D
S315202C1E101EFC18B1054810F061FCECE70120EBE71D
S315202C1E20ABAAAAAA65202C202B472D204B472D2048
S315202C1E3070B500F2444388B0002500F23C46C0F829
S315202C1E403C3404460580C0F80454C0F80854C0F825
S315202C1E500C54C0F81054C0F82454C0F82854C0F898
S315202C1E602C54C0F83054C0F83454C0F83854C0F828
S315202C1E70405480F8445402A8FFF752FF02A930465A
S315202C1E80184E0FF06FFB02A80FF048FBB378328860
S315202C1E90284615498DF80630ADF8042005F070F843
S315202C1EA01149284605F06AF801AA0F49022009F0A3
S315202C1EB089FD0E4B602283F888234FF480721A6199
S315202C1EC0334602AA53F8030F59681B7A03C21370A0
S315202C1ED0092202A9A01CC4F804240FF079FD20465F
S315202C1EE008B070BD28452D2000366E0100E100E09B
S315202C1EF008B5FFF747FCD0F82004BDE8084008F0C9
S315202C1F0037BAD0F8200407F019BD07B5CDE9002142
S315202C1F1082680AB90FF044FAC3686A4601A9984721
S315202C1F2003B05DF804FB0000F7B51D46531E06468C
S315202C1F3014460E2B7FD8DFE803F00C7E7E7E7E7E29
S315202C1F407E7E3C6D080E137E6D003E4B2B6012233D
S315202C1F506B6000240DE002364FF480632E60F7E789
S315202C1F603948AC7A28603CB9042238496A600FF08B
S315202C1F702FFD204603B0F0BD2A8940F209439A4210
S315202C1F8015D1022C08D0032C09D0012C0BD1294693
S315202C1F902F48FFF7F5FEDCE729462E48F9E7294698
S315202C1FA0D6F83C04F5E721462B4810F097FB052460
S315202C1FB0DFE700240C27D6F82404D6F828341B1A5D
S315202C1FC0B4EB231F10D2D6F8083400EB041007FBF1
S315202C1FD004335B68019383680BB90FF0E1F9C3686E
S315202C1FE001A901349847E6E700270124D6F83004C6
S315202C1FF0D6F834341B1AB7EB231F08D200EB071064
S315202C20002A4609210137FFF780FF0440EEE784F0AA
S315202C20100104AEE70027D6F83004D6F834341B1A40
S315202C2020B7EB231F95D200EB07102A462146013702
S315202C2030FFF76BFFEFE7224608490948012410F0E9
S315202C20404DFB96E7DF472D2058880020DB472D2097
S315202C205062472D2069472D207F472D209E472D20F6
S315202C2060A6472D2037B50D4604460192FFF78AFB4D
S315202C2070019B2A46214603B0BDE83040FFF754BFCA
S315202C20802DE9F84FD0E9008706468946A7EB0804A8
S315202C20909346A310214C5C43214B9C4202D12148D0
S315202C20A00FF05FF9012C2246A1EB080538BF01223F
S315202C20B0A41831D244B19C4228BF1C460C20604324
S315202C20C00FF036F9824600E0A2460AEB0503002DD6
S315202C20D09BE8070083E8070004DD2A464146504644
S315202C20E00FF084FCA7EB09070C35002F554404DD93
S315202C20F03A46494628460FF06BFC3D44B8F1000F72
S315202C210002D040460FF001F90C2000FB04A4C6E9AE
S315202C211000A5B460BDE8F88F1C46CFE7ABAAAAAAC7
S315202C2120AAAAAA0AC1472D2038B5002304460D4653
S315202C213083608B682BB102229847EB68E360AB68EF
S315202C2140A360204638BD38B5002304460D4683604F
S315202C21508B682BB102229847EB68E360AB68A360AF
S315202C2160204638BD13B50B4602466C46D0E90001F5
S315202C217084E8030093E8030082E8030094E8030034
S315202C218083E8030002B010BD2DE9F84307468846A4
S315202C21901646154604464FF0000944451AD02946C2
S315202C21A02046C5F808901035FFF7DCFFA36855F8B4
S315202C21B0082C2046103444F8082C45F8083C55F8B1
S315202C21C0042C54F8043C44F8042C45F8043CFFF722
S315202C21D0A3FAE2E7E01B3044BDE8F8832DE9F34768
S315202C21E0D0E9007988466FF078431146A9EB07028F
S315202C21F00646B3EB221F4FEA221402D11A480FF0BF
S315202C2200B0F8012C2246A8EB070A38BF0122A418C5
S315202C221027D24CB19C4228BF1C46200101910FF09D
S315202C222087F80199054600E0254605EB0A00FFF7BD
S315202C22307BFF41462A463846FFF7A6FF494600F142
S315202C224010024046FFF7A0FF804617B138460FF004
S315202C22505CF805EB0414C6E90058B46002B0BDE85E
S315202C2260F0871C46D9E700BFC1472D202DE9F8431E
S315202C2270074688461646154604464FF0000944451F
S315202C22801AD029462046C5F808901035FFF76AFF44
S315202C2290A36855F8082C2046103444F8082C45F809
S315202C22A0083C55F8042C54F8043C44F8042C45F8E6
S315202C22B0043CFFF731FAE2E7E01B3044BDE8F88313
S315202C22C02DE9F347D0E9007988466FF078431146FB
S315202C22D0A9EB07020646B3EB221F4FEA221402D1A2
S315202C22E01A480FF03EF8012C2246A8EB070A38BFD5
S315202C22F00122A41827D24CB19C4228BF1C4620016F
S315202C230001910FF015F80199054600E0254605EBBD
S315202C23100A00FFF718FF41462A463846FFF7A6FF44
S315202C2320494600F110024046FFF7A0FF804617B120
S315202C233038460EF0EAFF05EB0414C6E90058B460C3
S315202C234002B0BDE8F0871C46D9E700BFC1472D2037
S315202C23502DE9F0411E46D0F80C54D0F81034044602
S315202C23601746DDF81C809D4232D007C985E8070028
S315202C23700C35C4F80C54D4F82804D4F82C349842B0
S315202C23802DD03946FFF7D0FED4F828341033C4F894
S315202C23902834D4F83404D4F83834984226D031460C
S315202C23A0FFF7D1FED4F834341033C4F83434D4F8AF
S315202C23B00434A01C069903EB08021844C4F8042400
S315202C23C042460FF005FBB4F80434A380BDE8F08117
S315202C23D00A4600F581602946FFF752FECBE70146D7
S315202C23E03A4604F22440FFF7F9FED2E7014632465C
S315202C23F004F58660FFF764FFD9E7EFF305835BB11D
S315202C2400EFF311834FF0200282F31188BFF36F8FE5
S315202C2410BFF34F8F0360704709F0DCBBEFF30583C6
S315202C242013B180F31188704709F002BC10B504460D
S315202C243030B9084B40F2ED11074A08480FF03AF90B
S315202C2440042009F0E4FF10B12060002010BD43F2D7
S315202C2450DD70FBE759482D2080482D2004482D205F
S315202C246008B530B9054B4FF41071054A05480FF0C5
S315202C247021F900680AF0D4FA002008BD59482D20ED
S315202C248090482D2004482D2010B504460846114688
S315202C249034B9084B40F22D31074A08480FF00AF977
S315202C24A0002209F077FE10B12060002010BD43F2E7
S315202C24B0DD70FBE76D482D20A1482D2004482D20CA
S315202C24C013B530B9144B40F24931144A14480FF045
S315202C24D0F1F8002400680194EFF305839BB1234681
S315202C24E001AA09F0A7FF012812D1019B13B90020BC
S315202C24F002B010BD0B4B4FF080521A60BFF34F8F9A
S315202C2500BFF36F8FF3E71A4609F090FE0128EED021
S315202C251043F2DD70ECE700BF6D482D20B0482D200E
S315202C252004482D2004ED00E008B530B90B4B40F2C1
S315202C253071310B4A0B480FF0BDF8531C00681EBF97
S315202C25404FF47A735A43B2FBF3F20AF095F801282A
S315202C255043F2DE7008BF002008BD00BF6D482D2039
S315202C2560BC482D2004482D2008B530B9054B40F207
S315202C2570A131054A05480FF09DF800680AF050FA5B
S315202C2580002008BD6D482D20C8482D2004482D201C
S315202C25900123024A1370024A936070479C880020BC
S315202C25A000000F40FFF7F4BF2DE9F8432C4B1C6895
S315202C25B0844228BF044604B32A4E2B4D3368DFF8B9
S315202C25C0B49023F00103D9F8008033602B6823F0D4
S315202C25D001032B6072B6BFF34F8FBFF36F8F0BF0B7
S315202C25E0B5F8224F58B9AB686B602B6843F00103C2
S315202C25F02B603B68013B6B6062B6BDE8F883013CDF
S315202C260008FB04F33361336843F001033360BFF3D3
S315202C26104F8F30BFBFF36F8F154B00221A7062B6C7
S315202C262000BF1978B1B11A700E4A0F4D136823F0DA
S315202C26300103136009F0CEFA2B68204643F00103E0
S315202C26402B600AF007FE3B68013B6B60BDE8F84324
S315202C265009F0EEBA746AD9F80000B4FBF0F4E3E77B
S315202C2660A488002000000F4010E000E0A088002065
S315202C26709C880020988800200C4B64221A60022209
S315202C26800B4B1A606FF000420A4B1A600A4B4FF024
S315202C26908072DA60002243F8F02C43F8E82C63226F
S315202C26A043F8EC2C032243F8F02C7047A08800200A
S315202C26B098880020A488002000E100E03C4A08B538
S315202C26C0D2F8883043F47003C2F88830394A1388FC
S315202C26D0580705D5138823F004031B041B0C1380E1
S315202C26E0354A1388590705D5138823F004031B0470
S315202C26F01B0C1380314B1A6892044CD5304A5A60E5
S315202C27004FF6FF729A601A6822F0A00242F020023D
S315202C27101A602C4B1A68900443D5294A5A604FF6D6
S315202C2720FF729A601A6822F0A00242F020021A60E8
S315202C2730254B1A68D10703D51A6822F001021A6094
S315202C27401B4B5A69920315D45A6912F4003211D1B3
S315202C2750BFF34F8FBFF36F8FC3F85022BFF34F8F2A
S315202C2760BFF36F8F5A6942F400325A61BFF34F8FF1
S315202C2770BFF36F8F154A136F23F4005313670C4A3C
S315202C2780536943F010035361BFF34F8FBFF36F8F01
S315202C279000F04AF808BD4CF220525A604DF6281209
S315202C27A0ADE74CF220525A604DF62812B6E700BF00
S315202C27B000ED00E000000340004003400080034071
S315202C27C020C528D90000C14010E000E000400E4072
S315202C27D010B5C4010E4A04F1814402EBC00004F565
S315202C27E098042368C3F30223C05C04F031FB2368CE
S315202C27F00246DBB201339A42B0FBF3F006D2054BEC
S315202C280040F6C501044A05480EF054FF10BD00BF02
S315202C281060492D20D8482D2049492D20DD482D20B2
S315202C2820004870476889002008B5AFF3008008BDA2
S315202C283010B592B00420FFF7CBFF142204460021BA
S315202C284001A80FF0EDF83022002106A80FF0E8F8A9
S315202C285001A806F08FF8012301A919488DF8043018
S315202C286006F0B0F804234FF0004216498DF81830A4
S315202C28704FF480331248CDE9072303F10133124A52
S315202C288003F102230993114BB2FBF4F2CDE90A137F
S315202C28901E2300218DF83030A023534306AA0D93F6
S315202C28A041F68463CDE90F3340F20123ADF8443051
S315202C28B0234606F045F9B0FA80F0400912B010BD37
S315202C28C000400D401212780F00CA9A3B2A2A463C09
S315202C28D07FB5684603F064FC074B6946074800938E
S315202C28E0074B0193074B0293074B039303F09EFD53
S315202C28F007B05DF804FB00BFA888002000004440E8
S315202C2900D8880020088900203889002010B5E4B00A
S315202C29104FF49E72002115AC20460FF081F814201E
S315202C2920FFF756FF4FF4003330212060A36002239B
S315202C2930009402A8E38140F2033323820C23E37410
S315202C29404FF40063C4E909334023E3622023C4E90E
S315202C29500D13074C019405F049F802A9204604F0E2
S315202C29608BFF0449684602F04DFA64B010BD00BFB7
S315202C297000C00C406889002038B50446AFF300808F
S315202C298002F0BCF800F056FB01F086FD0CB101F0EC
S315202C299077FDFFF74DFF10B90B480FF09FFE0B4D1F
S315202C29A00B4C0C480C4A641B0C49121A0FF010F8CD
S315202C29B02246002128460FF033F8FFF789FFBDE881
S315202C29C03840FFF7A3BF00BF2B492D2000000081E4
S315202C29D0000000810000008100000081F47A2D2067
S315202C29E04B78C0018A781B02013A03F4E063D2B2F9
S315202C29F013430A78002A0CBF00224FF0807213430F
S315202C2A00034A1350BFF34F8FBFF36F8F704700BF0E
S315202C2A100000CC402DE9F743EC4C00232046ADF8A2
S315202C2A2004308DF8063004F065FBE94BE94AD3F8DF
S315202C2A3000199142224640F0D882D3F81039DBB2C5
S315202C2A400B2B40F0D282636923F0005363616368B9
S315202C2A5023F4F85343F4B0536360A368002BFCDAB9
S315202C2A60DB4BDD4ED3F87038DB48DA06C3F3001186
S315202C2A704ABF00220122114605F022FE01213046B2
S315202C2A8005F09CFD0121304605F0DEFD022004F0E8
S315202C2A9085F9D6F8C03043F00203C6F8C03004F0CE
S315202C2AA061FA336D43F002033365336943F0020335
S315202C2AB03361336943F080733361336A43F01003F7
S315202C2AC03362336A5B00FCD50024012501A9022739
S315202C2AD020468DF805408DF80650FFF781FF01A979
S315202C2AE008208DF805404FF006088DF80650FFF784
S315202C2AF077FFBA484FF0180903F02CFEB84804F09B
S315202C2B00F3F8B84803F09CFE21461B22022003F042
S315202C2B1029FF13222946022003F024FF0221182202
S315202C2B20084603F01FFF20220321022003F01AFF60
S315202C2B3003F0C4FF21460D22032003F013FF11229C
S315202C2B402946032003F00EFF20220221032003F026
S315202C2B5009FF03211622084603F004FFD6F810326B
S315202C2B60A14823F00803C6F81032042604F03AF8BC
S315202C2B702946052003F0F2FF04F090F820460DEBB1
S315202C2B8006018DF805608DF80650FFF729FF0DEB11
S315202C2B90060138468DF805608DF80670FFF720FF64
S315202C2BA003230DEB060130468DF805808DF8063073
S315202C2BB0FFF716FF0DEB060105208DF805408DF845
S315202C2BC00650FFF70DFF07230DEB060140468DF827
S315202C2BD006608DF80530FFF703FFF0230DEB060179
S315202C2BE008208DF805408DF80630FFF7F9FE0DEB01
S315202C2BF006010E208DF805408DF80650FFF7F0FEC5
S315202C2C000DEB06010F208DF805408DF80690FFF769
S315202C2C10E7FE0DEB060110208DF805408DF8069069
S315202C2C20FFF7DEFE0DEB060111208DF805408DF801
S315202C2C300650FFF7D5FE0DEB060112208DF8054028
S315202C2C408DF80650FFF7CCFE0DEB060113208DF8E0
S315202C2C5005408DF80650FFF7C3FE0DEB0601192013
S315202C2C608DF805408DF80650FFF7BAFE0DEB0601C0
S315202C2C701A208DF805408DF80650FFF7B1FE0DEB86
S315202C2C8006011B208DF805408DF80650FFF7A8FE6F
S315202C2C900DEB06011C208DF805408DF80650FFF70C
S315202C2CA09FFE0DEB06011D208DF805408DF8065054
S315202C2CB0FFF796FE0DEB06011E208DF805408DF8AC
S315202C2CC00650FFF78DFE0DEB06011F208DF80540D3
S315202C2CD08DF80650FFF784FE0DEB060120208DF88B
S315202C2CE005408DF80650FFF77BFE0DEB06012120C3
S315202C2CF08DF805408DF80650FFF772FE0DEB060178
S315202C2D0022208DF805408DF80650FFF769FE0DEB35
S315202C2D10060123208DF805408DF80650FFF760FE1E
S315202C2D200DEB060124208DF805408DF80650FFF773
S315202C2D3057FE0DEB060125208DF805408DF8065003
S315202C2D40FFF74EFE0DEB060126208DF805408DF85B
S315202C2D500650FFF745FE0DEB060127208DF8054082
S315202C2D608DF80650FFF73CFE0DEB060128208DF83A
S315202C2D7005408DF80650FFF733FE0DEB0601292072
S315202C2D808DF805408DF80650FFF72AFE0DEB06012F
S315202C2D902A208DF805408DF80650FFF721FE0DEBE5
S315202C2DA006012B208DF805408DF80650FFF718FECE
S315202C2DB00DEB06012C208DF805408DF80650FFF7DB
S315202C2DC00FFE0DEB06012D2010E000BF0080CA401F
S315202C2DD000C0CA406959AC570040C840F04B2D2042
S315202C2DE0844E2D20904E2D20F84B2D208DF80540ED
S315202C2DF08DF80650FFF7F4FD0DEB06012E208DF8ED
S315202C2E0005408DF80650FFF7EBFD0DEB06012F2024
S315202C2E108DF805408DF80650FFF7E2FD0DEB0601E7
S315202C2E2030208DF805408DF80650FFF7D9FD0DEB97
S315202C2E30060134208DF805608DF80660FFF7D0FD4D
S315202C2E400DEB060135208DF805408DF80650FFF741
S315202C2E50C7FD0DEB060136208DF805408DF8065062
S315202C2E60FFF7BEFD0DEB060137208DF805408DF8BA
S315202C2E700650FFF7B5FD0DEB060138208DF80540E1
S315202C2E808DF80650FFF7ACFD0DEB060139208DF899
S315202C2E9005408DF80650FFF7A3FD0DEB06013A20D1
S315202C2EA08DF805408DF80650FFF79AFD0DEB06019F
S315202C2EB03D208DF805408DF80650FFF791FD0DEB42
S315202C2EC006013E208DF805808DF80670FFF788FDCB
S315202C2ED00DEB060140208DF805408DF80650FFF7A6
S315202C2EE07FFD0DEB060141208DF805408DF806500F
S315202C2EF0FFF776FD0DEB060142208DF805408DF867
S315202C2F000650FFF76DFD0DEB060143208DF805408D
S315202C2F108DF80650FFF764FD0DEB06014C208DF83D
S315202C2F2005408DF80650FFF75BFD3A4B3A4C1A6854
S315202C2F3022F007021A601A6822F0380242EA0902A5
S315202C2F401A601A6822F0C0021A605A6822F003020C
S315202C2F505A609A6822F003029A60DA6822F49F62F9
S315202C2F6022F00702DA601A6922F002021A615A69E3
S315202C2F7022F0050232435A615A6922F002025A6122
S315202C2F809A6922F002029A619A6922F001029A61C8
S315202C2F909A6D22F001029A65DA6D22F00102DA6529
S315202C2FA01A6E22F001021A665A6E22F001025A6615
S315202C2FB09A6E22F001029A66DA6E22F00102DA6605
S315202C2FC02368164AC3F30223D05C03F041FF2368FF
S315202C2FD0DBB22B449842B0FBF3F215D2104B40F6C1
S315202C2FE0C501104A10480EF065FB536923F0005397
S315202C2FF05361536823F4F85343F4A85353600B4A74
S315202C30009368002BFCDA2BE5094B1A6003B0BDE83C
S315202C3010F08300BF00400E400000CC400C4C2D20ED
S315202C3020D8482D20D84B2D20DD482D200080CA4075
S315202C30308C800020FFF7EEBC104642B10023137380
S315202C3040536833B11B6823B10A4602211847032043
S315202C3050704701207047104642B1002353735368A2
S315202C306033B11B6823B10A46012118470320704728
S315202C3070012070472DE9F043044687B018B901206A
S315202C308007B0BDE8F083837B002BF8D0426892688A
S315202C309051799942F3D303F1005312680C2740F649
S315202C30A0024C013B02EBC30612F8335000239D42FF
S315202C30B0E5D907FB03F270688118825A62453BD109
S315202C30C00D7A00239D422DD80026CB782374002EF2
S315202C30D0D5D000250120DFF870802F46DFF86C90A4
S315202C30E0A6603379AB42CBD90623B2688DF808700B
S315202C30F06B43D118D25C8DF80620D2094B88ADF8BB
S315202C310004304B788DF8073018D0022B02D1277338
S315202C3110CDF80C9003AA01A920680135049406F059
S315202C312043FBDEE71A01486800EB0316805CE27B42
S315202C31309042CAD00133C5E70133B8E7022B04BF2E
S315202C31406773CDF80C80E5E757302C2039302C20AE
S315202C3150836870B5044693B1002501200626A36802
S315202C31601A79954202D30023A36070BD9A6806FB78
S315202C317005F320680135D15C06F035FBEFE70120FD
S315202C3180F3E7000070B50A4C0E46154623685BB94A
S315202C3190214601F0EDFC30B923683BB14FF47F4337
S315202C31A06660E3812C6070BD0220FCE70320FAE7E1
S315202C31B00000002010B5044630B1FFF7C9FF0023CC
S315202C31C0C4E90033E38110BD0320FCE77FB5044618
S315202C31D01546002A60D000285ED0CBB2013B032BAB
S315202C31E054D8DFE803F01E02064000238373012403
S315202C31F014E04368002BFAD02A78837B9A42F6D0A7
S315202C3200FFF7A6FF2B782046A3730023E373FFF743
S315202C321031FF044610B1214806F00EF8204604B0A2
S315202C322070BD2B68227C197998889142DFD12E1D6E
S315202C3230ADF808005888009605F10806ADF80A0066
S315202C3240287B01968DF80C005B78222B07D163689E
S315202C32506A460B2120461B6898470446DEE7104811
S315202C326005F0EAFFC3E74368002BC0D02D88037CEA
S315202C3270B3EB152FBBD1EDB2C37BAB42B7D0FFF747
S315202C328067FF2046E573FFF7F5FEE6E70A46054875
S315202C3290054905F0D1FFAAE70324BFE79C4E2D2034
S315202C32A0B64E2D20E84E2D20FB4E2D202DE9F04319
S315202C32B090F8943087B004461BB9012007B0BDE89E
S315202C32C0F0834268926851799942F6D31268002A83
S315202C32D0F3D003F100530C27013B02EBC30612F863
S315202C32E0335000239D42E8D907FB03F270688118DE
S315202C32F0825C082A2CD10D7A00239D421DD80027CA
S315202C3300CB7884F89530002FD7D000260120DFF8F3
S315202C33108C803546DFF88890A7603B79B34219D844
S315202C33200123E560C4F88450C4F8883084F88C5086
S315202C333084F88F5084F89650C0E71A01486800EB21
S315202C33400317805C94F893209042D9D00133D4E78C
S315202C33500133C7E70623B9688DF808507343013625
S315202C3360CA1810798DF80900CB5C20688DF80630A8
S315202C33705188ADF8041001A9527804948DF80720B1
S315202C3380DA0903AA15BF84F8913084F89230CDF847
S315202C33900C90CDF80C8006F007FABEE7B1392C201C
S315202C33A0F5372C20836870B5044693B1002501206F
S315202C33B00626A3681A79954202D30023A36070BDF2
S315202C33C09A6806FB05F320680135D15C06F00BFACA
S315202C33D0EFE70120F3E70000F8B5214C0F461646FF
S315202C33E02568002D3AD104F198032146A36104F1D6
S315202C33F0B803E36104F1C803236204F1DC03E3631D
S315202C340004F1E403236404F1F003236501F0B0FBFB
S315202C341030B184F8945084F89350C4E90055F8BD03
S315202C3420236833B9606084F8940084F893000320D1
S315202C3430F5E7FF23702284F8940084F89330236ACE
S315202C3440606167601A700A229870DA711873587343
S315202C345084F88D0084F88E003460E0E70220DEE7C5
S315202C34601400002010B5044648B1FFF79BFF00231B
S315202C3470C4E9003384F8943084F8933010BD0320AB
S315202C3480FCE7F0B504468FB01646002A00F06F8173
S315202C3490002800F06C81C9B20139052900F26B8114
S315202C34A0DFE811F034010600430067008C00BC00D5
S315202C34B0002301AA052180F8943043681B6898477D
S315202C34C0019B0546002B00F05481013B01AE4FF0A9
S315202C34D0010C04F1440E84F89030B3681BB3736846
S315202C34E00BB3331D0EEB0C170FCB87E80F0094F87C
S315202C34F090205FFA8CF39A4205D30CF1010C1036EE
S315202C3500BCF1040FE9D1226A702313700A23D371DC
S315202C3510002393701373537384F88D3084F88E3074
S315202C352028460FB0F0BD0125E1E74368002B00F0BB
S315202C3530228190F8943012789A4200F005810BB1B2
S315202C3540FFF730FF3378204684F89430002384F814
S315202C35509330FFF7ABFE05460028E1D11F23A26945
S315202C356094F89210206806F011F9012384F88D30F6
S315202C3570D6E74368002B00F0FE80168890F895300D
S315202C3580B3EB162F40F0F780F6B290F89330B34277
S315202C359000F0DA80FFF706FF2046FFF787FE054668
S315202C35A048B91F23A26994F89210206806F0EEF8E9
S315202C35B0012384F88D3084F89360B1E74368002B7F
S315202C35C000F0D9808368002B00F0D58090F88630C7
S315202C35D07BB9117890F891200120914207D184F85B
S315202C35E0860084F88E302068317806F033F905462B
S315202C35F000E0012594F88730002B91D1317894F86E
S315202C3600922091428CD1012284F88D30206884F826
S315202C36108720317806F01EF9054681E74368002B72
S315202C362000F0A9808368002B00F0A58090F88950A3
S315202C3630012D3FF475AF90F88650012D40D112788C
S315202C364090F891309A4209D1002380F8863080F860
S315202C36508E300068317806F00EF9054694F88730BE
S315202C3660012B0ED1327894F892309A4209D100232C
S315202C3670206884F8873084F88D30317806F0FBF872
S315202C3680054694F88F30023B012B29D894F88A30A2
S315202C3690012B17D1B4F88630002B7FF441AF94F848
S315202C36A08D202068012A94F8921084F88A3025D10E
S315202C36B084F88D3006F06EF8002384F88F302FE7AF
S315202C36C00125CBE794F88E302068012B94F89110A5
S315202C36D00CD184F8963006F05DF8002384F88F30D0
S315202C36E094F88A30012B7FF41BAFD3E70D23E269A4
S315202C36F006F046F8012384F88E30EEE71F23A269C4
S315202C370006F044F8012384F88D30D5E713681A780F
S315202C371002F01F05012D2ED190F89500197988429B
S315202C37207FF4FEAE5978FE2903D0FF290ED005252D
S315202C3730F6E659880029FAD1DB88012BF7D1120617
S315202C3740F5D59034C6E901450025E9E659880029A6
S315202C3750EDD1DB88002BEAD11306E8D440F20112F6
S315202C3760A4F8885084F88A50A4F88620ECE7032500
S315202C3770D6E60425D4E60125D2E630B5036985B0F4
S315202C3780002504460093836902955A7BC36800EB77
S315202C379002118DF80C20B3F5803F6A46C96D28BFDF
S315202C37A04FF480338B4294BF0193019104214368BB
S315202C37B01B689847A36922695B7B94F8911004EBCC
S315202C37C003135B6D9A4206D22068DDE9013205F09F
S315202C37D0D7FF05B030BD0123206884F88B5084F8A0
S315202C37E08630022384F8855084F88F3006F032F800
S315202C37F02846EEE77FB54B6814460E465A1C2CD12C
S315202C380094F88530A3B163681D688DB1A269D37BEA
S315202C381003F07F03282B0BD1002309682046029125
S315202C3820012101930093537B6A468DF80C30A847CF
S315202C383094F89650012D03D00125284604B070BD4E
S315202C38400023E26994F8911084F896300D23206891
S315202C385005F096FFA4F88E50EFE7E26894F88B508B
S315202C386093429CBFD21AE260012D0CD1002394F8EE
S315202C38709110206884F88B3084F8865084F8853013
S315202C388005F0E8FFD9E794F88520BAB90D2BD3D1CA
S315202C38900B681968264B9942CED1012584F88E20A7
S315202C38A01F23A26994F89210206884F8885005F07A
S315202C38B06DFF84F88D50C0E701252AE062681568D3
S315202C38C0002DB9D001933368029323690093A36901
S315202C38D05A7B8DF80C20DB7B03F07F03282B03D11E
S315202C38E06A4601212046A847E368002BE4D0A36929
S315202C38F020465A7B736804EB0212926DB3FBF2F2CC
S315202C3900236913442361FFF738FFE3680546002B10
S315202C391093D10023E26994F8911084F88530012301
S315202C3920206884F88E300D2305F02AFF85E700BF0A
S315202C39305553425330B5036985B000250446009370
S315202C3940836902955A7BC36800EB02118DF80C20F3
S315202C3950B3F5803F6A46096E28BF4FF480338B42DD
S315202C396094BF01930191032143681B689847A3694F
S315202C397022695B7B94F8921004EB03135B6D9A42BD
S315202C398006D22068DDE9013205F000FF05B030BDF6
S315202C39900123206884F88C5084F88730022384F8FD
S315202C39A0845084F88F3005F055FF2846EEE700002A
S315202C39B07FB514464A680E46531C2CD194F8843075
S315202C39C0A3B163681D688DB1A269D37B03F07F03F5
S315202C39D02A2B0BD100230968204602910221019320
S315202C39E00093537B6A468DF80C30A84794F88D505B
S315202C39F0002D40F0AB81B4F886304BB91F23A26939
S315202C3A0094F89210206805F0C1FE012384F88D309D
S315202C3A10284604B070BDE3689A429CBF9B1AE3608B
S315202C3A20A369DB7B03F0BF03152B06D163681B68C8
S315202C3A301BB100220B212046984794F88C30012B61
S315202C3A400CD1002594F89210206884F8873084F8BD
S315202C3A508450A4F88C5005F0FDFED9E794F88450B8
S315202C3A60002D37D073680193336802932369009312
S315202C3A70A3695A7B8DF80C2062681568CDB1DB7B47
S315202C3A8003F07F032A2B03D16A4602212046A8471E
S315202C3A90E5688DB1A36920465A7B736804EB021224
S315202C3AA0926DB3FBF2F2236913442361FFF742FF95
S315202C3AB00546E368002BABD1002384F884300D23F4
S315202C3AC0E26994F89110206805F05AFE012384F8B7
S315202C3AD08E309DE794F88830002B00F01E81736879
S315202C3AE01F2B40F01A81A369994A1968914240F0FC
S315202C3AF014815E7B16F0F00F40F00F81997B11F02C
S315202C3B00E00240F00A8194F890000130864280F041
S315202C3B10048101390F2900F20081E1698D4884F84E
S315202C3B208D20E260086058688A60486084F8882076
S315202C3B3093F90C009E680028197B02DB321E18BFD5
S315202C3B400122002884F8842008DA3EB1012094F83A
S315202C3B50862084F8850022B1054659E7002284F870
S315202C3B608520DB7B032B04D0226A002090701073D7
S315202C3B705073CA092F2B666284F8392050D8112B02
S315202C3B800CD8032B00F09480042B00F09D80002B66
S315202C3B9000F09280204600F039FC57E0123B1D2B7A
S315202C3BA0F8D801A252F823F0473C2C20953B2C2008
S315202C3BB0953B2C20D93C2C20953B2C20953B2C20FE
S315202C3BC0953B2C20953B2C202F3C2C20F93C2C2033
S315202C3BD0953B2C20E93C2C20C13C2C20953B2C20A1
S315202C3BE0953B2C20953B2C20953B2C20E13C2C20C6
S315202C3BF0953B2C20D13C2C20953B2C20953B2C20C6
S315202C3C00A93C2C20953B2C203F3C2C20953B2C2032
S315202C3C10953B2C20953B2C20953B2C20F13C2C2085
S315202C3C209E2B55D007D8552B56D05A2BB2D1204661
S315202C3C3000F054FA0AE0A82B36D0AA2BAAD120467B
S315202C3C4000F0FCF902E0204600F0AFF9236A054685
S315202C3C509B7843B1E3691A7B2AB9A269D27B032AC2
S315202C3C601CBF01221A73052D0ED194F88430012BFA
S315202C3C7046D194F887200AB984F88C30002384F80E
S315202C3C808430022384F88F3094F88430002B7FF4F0
S315202C3C90BFAE94F88530002B7FF4BAAE94F88B30D7
S315202C3CA0002B7FF4B5AE0AE7204600F0A2F9CDE72B
S315202C3CB0204600F059F9C9E7204600F0E4F9C5E77B
S315202C3CC0204600F03CFBC1E7204600F019FBBDE75F
S315202C3CD0204600F053FAB9E7204600F023FAB5E740
S315202C3CE0204600F093FAB1E7204600F049FBADE7D9
S315202C3CF0204600F0E9F9A9E7204600F062FBA5E76B
S315202C3D0094F88530012BBCD194F886200AB984F8F6
S315202C3D108B30002384F88530B3E794F892102068F2
S315202C3D2005F098FD94F89110206805F093FD00235A
S315202C3D3084F88D30012384F88F3040F20113A4F8B7
S315202C3D4086304FF48073A4F8883061E600255FE630
S315202C3D50555342435553425330B484690129647BCD
S315202C3D6000EB0414A56D5468126804FB05F402615B
S315202C3D70C46002D130BCFFF700BD30BCFFF7DABDE2
S315202C3D80D0E9093270B504464BB9C1698B6012B99A
S315202C3D9010460A7370BD022218460A73FAE790F869
S315202C3DA0391000296ED0C56942B9AB60134694F8F8
S315202C3DB09110E26A206805F0E3FC0FE090F83A10A7
S315202C3DC0002954D0934290F8381013D99B1A0129E4
S315202C3DD0AB60EBD100F13002FFF7BEFFE36908B9E7
S315202C3DE018735CE001221A730322236A9A7011221B
S315202C3DF01A7354E04FF00002AA6010D1012907D182
S315202C3E0000F13002FFF7A8FFE36940BB1873C1E726
S315202C3E10C26A90F89110006805F0B2FCF4E70129EB
S315202C3E2016D18269527B00EB0212966DB3FBF6F209
S315202C3E3006FB1233426300F13002AB60FFF78CFF96
S315202C3E40E36960B994F83820012ADFD102220CE0EC
S315202C3E50C26A90F89110006805F092FCF0E70122D6
S315202C3E601A730322236A9A7011221A7392E7C26A52
S315202C3E70AB600B4690F89110006805F081FCE36945
S315202C3E800222B5E76AB990F89210006805F0E2FC98
S315202C3E90636AE26993600123137384F887300520C3
S315202C3EA078E790F83A1059B190F89210006805F0FE
S315202C3EB0D1FCE369626A9A6002221A730123ECE729
S315202C3EC09342C56990F8386019D99B1A012EAB609C
S315202C3ED00DD100F13002FFF73FFFE36900283FF4B4
S315202C3EE07FAF01221A730322236A9A7080E7134626
S315202C3EF090F89210C26A006805F048FCEDE7A9609C
S315202C3F0016D1012E0DD100F13002FFF725FFE369E2
S315202C3F1000283FF47BAF01221A73236A03229A705E
S315202C3F20A3E7C26A90F89210006805F02FFCEEE702
S315202C3F30012E12D18269527B00EB0212966DB3FBB5
S315202C3F40F6F206FB1233426300F13002AB60FFF728
S315202C3F5003FF0028E1D1E36974E7C26A90F8921036
S315202C3F60006805F013FCF4E710B5036A86B0044606
S315202C3F700493836903F10F025B7B8DF8143043681D
S315202C3F8001921B6813B101AA0F21984712232046B0
S315202C3F90A362012384F83A30236AE362002384F84F
S315202C3FA03830FFF7EDFE06B010BD10B5036A86B08B
S315202C3FB004460493836903F10F025B7B8DF814303E
S315202C3FC04368019200221B68CDE9022213B101AA73
S315202C3FD008219847029B2046A362012384F83A3075
S315202C3FE0039BE362002384F83830FFF7C9FE06B022
S315202C3FF010BD826910B4D37BD2F81110282B09BAA4
S315202C400015D1D38A5BBA9BB2012480F83A40527BD5
S315202C401000EB0212926D80F838405A435DF8044B1F
S315202C402082620022C0E90C13C262FFF7A9BEA82B1C
S315202C40300ABFD2F8153000231BBAE5E7826910B4E3
S315202C4040D37B0024D2F811102A2B09BA14D1D38A67
S315202C40505BBA9BB280F83A40527B00EB0212926DEF
S315202C40605A43C0E90A24012280F838205DF8044BF3
S315202C4070C0E90C13FFF784BEAA2B0ABFD2F8153041
S315202C408023461BBAE6E730B5036A87B00446049369
S315202C4090836903F10F025B7B019201228DF8143088
S315202C40A0002380F83A208362C36280F83830FFF7E9
S315202C40B067FE636805461B681BB101AA07212046AB
S315202C40C09847284607B030BD00220121826280F80D
S315202C40D03A10C26280F83820FFF752BE10B5036A18
S315202C40E086B004460493836903F10F025B7B8DF81B
S315202C40F014304368019200221B68CDE9022213B1A9
S315202C410001AA09219847029B2046A362012384F801
S315202C41103A30039BE362002384F83830FFF730FED5
S315202C412006B010BD10B5036A86B004460493836985
S315202C413003F10F025B7B8DF8143043680192002229
S315202C41401B68CDE9022213B101AA0A219847029BAA
S315202C41502046039AA3620023E26284F83A3084F83C
S315202C41603830FFF70DFEA3691B7CDB0704D5236AA9
S315202C417005229A7024221A7306B010BD836930B595
S315202C418085B05D7B002304468DF80C50CDE9013398
S315202C419043681B6813B101AA1021984794F89030D4
S315202C41A0AB423FBF236A052200259A70029931B172
S315202C41B0019B13B304EB0515C5E915310821A0691C
S315202C41C0437BC07B0533252804EB03135A68A16255
S315202C41D002F1FF3212BA12D1E16B0A609B681BBA2C
S315202C41E04B6001232046E16284F83A30002384F880
S315202C41F03830FFF7C5FD05B030BD1946DFE7216CF9
S315202C42004A609B681BBA8B60EBE7000070B53B4B72
S315202C4210044688B01868A36900905D7B0023CDE9FD
S315202C4220053363688DF81C501B681BB105AA112118
S315202C42302046984794F89030AB423FBF236A0522FC
S315202C424000259A70069B2BB1059A1AB104EB0515FD
S315202C4250C5E91523A36994F84C50997DDA7D42EA59
S315202C42600121002D48D06269002A14BF0220032088
S315202C42705B7B002D4FEAC00503F105038DF8035017
S315202C428004EB03135A689E6812BA33BA039204932A
S315202C429014BF4FF000734FF0807301920C223343DE
S315202C42A002EBC0021BBA8A42029328BF0A46236D10
S315202C42B09DF8001019709DF80110236D59709DF8EA
S315202C42C00210236D997001A9236DDD70042311F83A
S315202C42D0015B206DC55401330C2BF8D101232046CC
S315202C42E0A26284F83A30236DE362002384F83830B6
S315202C42F0FFF746FD08B070BD2846B9E734452D207A
S315202C430070B5002501260446856280F83A60C56280
S315202C431080F83850FFF734FDE3691A7B022A0DD03A
S315202C4320A269127C02F01F02172A1DBF05221E73BA
S315202C4330236A1D731EBF9A7024221A7370BD30B542
S315202C4340036A87B004460493836903F10F025B7BCF
S315202C4350019201228DF81430002380F83A208362B2
S315202C4360C36280F83830FFF70BFD636805461B685F
S315202C43701BB101AA0C2120469847284607B030BDF0
S315202C438030B5036A87B004460493836903F10F0280
S315202C43905B7B019201228DF81430002380F83A2081
S315202C43A08362C36280F83830FFF7EAFC63680546DF
S315202C43B01B681BB101AA0D2120469847284607B019
S315202C43C030BD30B5036A87B004460493836903F164
S315202C43D00F025B7B019201228DF81430002380F88A
S315202C43E03A208362C36280F83830FFF7C9FCE36930
S315202C43F005461B7B022B06D063681B681BB101AAC2
S315202C44000E2120469847284607B030BD10B4C169E6
S315202C4410002201248A600C730521036A826299701A
S315202C442020215A7319735DF8044BFFF7A9BC0000A1
S315202C443010B50E4C0E4BD4F8002FC2F30222134487
S315202C444093F8F00002F004FDD4F8003F0246DBB2CC
S315202C445001339A42B0FBF3F006D2064B40F6C50147
S315202C4460054A06480DF026F910BD00BF0000CC40A9
S315202C4470F34F2D20D8482D20CC4F2D20DD482D2014
S315202C448010B5FFF7D5FF012203464FF4E131062064
S315202C4490BDE8104004F0ACBD984B99495A690846A2
S315202C44A012F4003F2DE9F041964D2E460ED0BFF347
S315202C44B04F8FBFF36F8F5A6922F400325A61002234
S315202C44C0C3F85022BFF34F8FBFF36F8F8B4A53699C
S315202C44D0DB0324D50023C2F88430BFF34F8F5369D6
S315202C44E023F480335361BFF34F8FD2F8803043F6B9
S315202C44F0E07CC3F3C907C3F34E335B0103EA0C08F4
S315202C45003C4648EA847E013CC2F874E2F9D2203B30
S315202C451013F1200FF2D1BFF34F8FBFF36F8FBFF361
S315202C45205F8F764A536A23F480335362764B5A68CC
S315202C453022F001025A60BFF34F8FBFF36F8F1022E8
S315202C4540724CDA60724A1A61724ADA60724A1A61BD
S315202C4550DC601A611322714CDA60714A1A611422BA
S315202C4560DA60704A1A61DC601A616F4ADA606F4A27
S315202C45701A616F4ADA606F4A1A616F4ADA606F4A9B
S315202C45801A616F4ADA606F4A1A61002225FA02F400
S315202C4590012C0CD84AB36C4CB4FBF5F705FB17450C
S315202C45A03DB16A4BB1216A4A6A480DF083F8013233
S315202C45B0ECE701259540B54203D0674BB221644ADE
S315202C45C0F2E7042A03D8654BB321614AECE7013A7A
S315202C45D024F01F04520044F01A0402F03E02DC6040
S315202C45E042F0427242F001021A615D4A5D4CDA6059
S315202C45F05D4A1A615D4ADA605D4A1A615D4ADA6063
S315202C46005D4A1A61DC601A61002221FA02F4012C1F
S315202C46100AD82AB3594CB4FBF1F501FB154129B123
S315202C4620574BD5214A4ABFE70132EEE7012191406B
S315202C4630814203D0534BD621454AB5E7042A03D8C9
S315202C4640464BD721424AAFE7013A44F01F04520089
S315202C4650DC6002F03E0242F0447242F001021A6102
S315202C4660BFF35F8F05225A60244B5A6A42F480325C
S315202C46705A62BFF34F8FBFF36F8F5A6912F4803271
S315202C468023D1C3F88420BFF34F8FD3F8802043F651
S315202C4690E074C2F3C900C2F34E32520102EA040678
S315202C46A0014646EA81750139C3F86052F9D2203A7F
S315202C46B012F1200FF2D1BFF34F8F5A6942F4803278
S315202C46C05A61BFF34F8FBFF36F8F0C4B5A6912F47D
S315202C46D0003211D1BFF34F8FBFF36F8FC3F8502207
S315202C46E0BFF34F8FBFF36F8F5A6942F400325A6152
S315202C46F0BFF34F8FBFF36F8FBDE8F08100ED00E045
S315202C4700002000000080000090ED00E012000060E8
S315202C47103F001000110000803900100315000020E6
S315202C47203B0010032300030316002020270003033D
S315202C47301700302025000303180000302F00030615
S315202C4740190000803300030300000020114F2D2078
S315202C4750E34F2D20294F2D20614F2D207C4F2D20AE
S315202C47601B0000401E0080412F0010031C0000411E
S315202C4770290010031D0040412700100300002C2087
S315202C4780834F2D20A74F2D20C64A46F22063D15881
S315202C4790C9072DE9F0410BD40121D150BFF34F8FFE
S315202C47A0BFF36F8F02F5CC4230321368DB07FCD572
S315202C47B00A22BD4B052402251A60042143F8042C19
S315202C47C0012043F8082C4FF00C0C43F80C2C152701
S315202C47D0B64BB74E1C601D6443F8044CDD63B54BB9
S315202C47E0DFF80CE31960C3F8F0030023DFF8048309
S315202C47F03360B14E37600327C6F840C0A6F50B268A
S315202C4800A6F6EC763260C6F840C046F8200C376205
S315202C481046F81C0CC6F894307762A84E3060C6F841
S315202C4820FC520E443060C6F8E4520E443060C6F872
S315202C4830E4520E443060C6F8E4520E443060C6F87A
S315202C4840E4520E443060C6F8E4520E443060F83EF2
S315202C4850C6F8FC00C6F80001C6F80401C6F8080103
S315202C4860C6F80C01C6F8E45335607560C6F8C40347
S315202C4870443E326072603266C6F84412C6F848123C
S315202C4880C6F8A4521026CEF80060CEF87830CEF892
S315202C48900460CEF874304FF0200EC8F800E0C8F82B
S315202C48A004E0DFF854E2CEF80030CEF8B4348E444F
S315202C48B0CEF800300EF5107ECEF86C32CEF80050A5
S315202C48C0CEF80450AEF5407ECEF80070CEF80470AB
S315202C48D00E27CEF84472CEF848720EF58E7E784F7F
S315202C48E03960A7F5BA77C7F87811C7F8B833C7F85F
S315202C48F0BC33243747F8243C47F8203C47F81C3C4B
S315202C490047F8183C47F8143C47F8103C47F80C3C21
S315202C491047F8083C47F8043C3B607B60BB60FB6057
S315202C49203B617B61BB61FB613B627B62BB62FB6251
S315202C49303B637B63BB63FB6340373B607B60BB6025
S315202C4940FB603B617B61BB61FB613B627B62BB6233
S315202C4950FB623B637B63BE63C7F88C301127CEF892
S315202C49600070CEF80470CEF8A8030EF1080ECEF8FF
S315202C49700070CEF880038E44CEF80070CEF88003DB
S315202C49808E44CEF80070CEF880038E44CEF800707C
S315202C49904C4F38604C484D4F0260A0F53D70C0F806
S315202C49A0F822C0F8FC22C0F80023C0F80423C0F853
S315202C49B00823026040F8342C40F8202C3C60444FCD
S315202C49C039607960B960F96039617961B961F961C9
S315202C49D03962796247F8041C47F8081C40F8202CC9
S315202C49E0C0F88060C0F88460C0F88860C0F88C60FD
S315202C49F0C0F89060C0F894608267C0F81421C0F883
S315202C4A0010213448046034480260C0F8B420C0F821
S315202C4A10B8201222C0F8A420C0F8A8201322C0F84F
S315202C4A20AC20C0F8B0202D4A1160903242F88CCCA4
S315202C4A3042F8881C42F8841C42F8801C42F87C1CC4
S315202C4A4042F8983C5360136002F53A0202F53C4238
S315202C4A501560234A1360C2F8B4C0C2F8B8C0C2F895
S315202C4A60A430C2F8A830C2F8AC30C2F8B0301D4BF6
S315202C4A701C6043F80C4C1C4B1C605C6043F8684C47
S315202C4A8043F8644C43F8D44C43F8D04C43F87C4C34
S315202C4A9043F8804C154B1C60DC601C615C61BDE8C6
S315202C4AA0F08100BF0000CC40F8800E401840C94051
S315202C4AB058830E4014810E400C40C940E4810E4090
S315202C4AC084810E4060850E4010840E402040C940C3
S315202C4AD044810E403040C94098810E40E0830E40E0
S315202C4AE0DC830E402480C0408C810E401C80C0402C
S315202C4AF01080C0405080C0406C810E40FFF744BED1
S315202C4B0073B50024064601A80D460194FDF775FCC5
S315202C4B10074B1A68964206D101982B60FDF77EFC2E
S315202C4B20204602B070BD0198FDF778FC0420F8E7EA
S315202C4B302801002037B50024054601A80194FDF74D
S315202C4B405CFC0A4B1A685AB19A7BAA4208D1019866
S315202C4B509C73C3E90044FDF761FC204603B030BDAD
S315202C4B600198FDF75BFC0420F8E700BF2801002004
S315202C4B7073B50024064601A80D460194FDF73DFC8D
S315202C4B80084A13684BB1927BB24206D101982B600E
S315202C4B90FDF744FC204602B070BD0198FDF73EFC83
S315202C4BA00420F8E7280100202DE9F7430F46154667
S315202C4BB022B90423184603B0BDE8F08301A9FFF7D8
S315202C4BC09FFF0028F5D1044601264FF00C08DFF86C
S315202C4BD05890019BE0B25B681A7A824201D8334600
S315202C4BE0E8E71B6808FB003083681B79012B15D05E
S315202C4BF0022B15D0032B15D0042B0DD1032309EB17
S315202C4C0003132A46394640689B689847052803464D
S315202C4C10D0D0002808BF00260134DAE70023EEE79F
S315202C4C200123ECE70223EAE76C522D2073B50D46BF
S315202C4C3001A904461646FFF763FF88B9012D08D132
S315202C4C400199204606F060FE019A02212046FFF7A4
S315202C4C50ABFF019B3246294620465B685B6898470A
S315202C4C6002B070BD2DE9F74F07460C469046002A18
S315202C4C705DD000295BD04B68002B58D0002301A88F
S315202C4C800193FDF7BAFB2B4B01981E681D461EB3CC
S315202C4C909B7BBB4220D10124FDF7C0FB204603B0D1
S315202C4CA0BDE8F08FDFF89490AF73C5F80890FDF728
S315202C4CB0B5FB6C60A9F110021F49384604F0ECFCB8
S315202C4CC0044678B96B685FFA86F91B7A4B4510D85F
S315202C4CD02B68C8F80030E1E7002EE3D00224FDF73C
S315202C4CE09DFBDBE7286804F0B6FC3846FFF722FF4D
S315202C4CF0D4E70C23DFF848A04FF0000B03FB09F96F
S315202C4D006B68196849448B681A799AF80C309A4240
S315202C4D1004D1DAF800300A1D384698470BF1010BDE
S315202C4D200AF1100ABBF1050FEAD10136CAE7042491
S315202C4D30B4E700BF280100202D4C2C203801002060
S315202C4D406C522D2070B586B00B78012506468DF831
S315202C4D500C3002230C4602928DF80D3040F20113B2
S315202C4D600595ADF80E3001AB049302A9304603F01D
S315202C4D7011F858B96388A18805FA03F3019A39B139
S315202C4D80934314BF01230023002BEED106B070BD14
S315202C4D901342F6E770B51E4686B00B7801250C46D5
S315202C4DA002A98DF80C30022302928DF80D3040F298
S315202C4DB009130595ADF80E3001AB049302F0EAFFEA
S315202C4DC038B9A368019A1340E268934208BF054676
S315202C4DD0357006B070BD7FB500238DF80C1002A956
S315202C4DE0CDE9013303238DF80D304FF48673ADF8BE
S315202C4DF00E3001AB04930123059302F0CBFF07B0B1
S315202C4E005DF804FBF8B50D46064628B9324B9121A0
S315202C4E10324A33480CF04EFC19B9324B92212F4A88
S315202C4E20F7E704680422002128460CF0F9FD2E4BC6
S315202C4E30706804F13C07218E28605980618EEB61C5
S315202C4E409980616B94F820209960A16B1A70D96097
S315202C4E50214602F057FE4FF48072002138460CF082
S315202C4E60DFFD40F20641214A214BE1662149DFF83C
S315202C4E7098E0C4F88C104FF401517068C4E90F23C4
S315202C4E8042F201431C4AC4E927E1C4E91323C4E9AD
S315202C4E9033231A491A4AC4F8DC100331C4E91723E0
S315202C4EA0184A4FF40053C4F8BC100021C4E93F2300
S315202C4EB040233A4602F0A8FE73681A6842F0010293
S315202C4EC01A60186810F00100FBD1636AAB60A36AE4
S315202C4ED0EB60E36A2B61F8BDA0532D201A532D20AD
S315202C4EE0BC522D2091532D20888900200304100C90
S315202C4EF008308024D80418080F04C004100418087D
S315202C4F009F0400041F04A0040204100C2DE9F04376
S315202C4F109046826887B0C66951431F46002396F86F
S315202C4F2000904D0004468DF80D304FF4847302A961
S315202C4F30006802958DF80C90ADF80E3002F02AFF01
S315202C4F4010BB2A4631462068FFF7FCFEE0B9022327
S315202C4F5002A920688DF80D304FF4807302958DF8B8
S315202C4F600C90ADF80E30CDE9048702F013FF58B91A
S315202C4F700DF107032A4631462068FFF70BFF18B997
S315202C4F809DF8070080F0010007B0BDE8F0832DE9DD
S315202C4F90F043914687B0C669984600230446377855
S315202C4FA08DF80D3040F203138DF80C70ADF80E30C1
S315202C4FB0D0E9022500682A4401FB02F502A90295B4
S315202C4FC002F0E8FE80BB032302A920688DF80D3061
S315202C4FD04FF4837302958DF80C70ADF80E30CDE915
S315202C4FE0049802F0D7FEF8B94FF485738DF80D008E
S315202C4FF002A9206802958DF80C70ADF80E3002F0BF
S315202C5000C9FE88B92A4631462068FFF79BFE58B937
S315202C50100DF107032A4631462068FFF7BBFE18B947
S315202C50209DF8070080F0010007B0BDE8F083F0B5AD
S315202C5030836885B0C66904465943056937784D433C
S315202C504000683946FFF7C7FE00236D0069468DF8A8
S315202C5050053040F20313206800958DF80470ADF8C6
S315202C5060063002F097FE90B940F205138DF8050014
S315202C50706946206800958DF80470ADF8063002F04C
S315202C508089FE20B92A4631462068FFF75BFE05B0FB
S315202C5090F0BD10B5EFF3108472B6438902890BB19B
S315202C50A09A420ED052B901600023013248600B601F
S315202C50B041600281184684F3108810BD436819601C
S315202C50C0F2E743F27A70F6E7EFF3108172B660B10D
S315202C50D003896BB1013B02689BB2038103B9436000
S315202C50E00023536013680360104681F310887047A1
S315202C50F01846FAE70068704710B50446C430FFF707
S315202C5100F9FF50B1A378012B07D1C268816804F12D
S315202C51100C00BDE8104000F05FBB43F2215010BDBF
S315202C5120F7B50546FFF7E8FF002705F1D0063046F0
S315202C5130FFF7E0FF0446C4B9EFF3108272B66B6812
S315202C514082F310887BB19A686AB11869D96888422B
S315202C515009D300929C601A69DC6901921CB1DA8A07
S315202C51606946186AA04703B0F0BD3046FFF7ACFF5E
S315202C5170A368A760009323690193E3691BB1E28A94
S315202C51806946206A98473046FFF7B4FF0446D2E793
S315202C519031B18378012B03D100210C3000F033BBA5
S315202C51A043F2215070472DE9F0470D46044600B9AD
S315202C51B0FEE701B9FEE7EFF3108772B64A68D0F8FE
S315202C51C0BC30D0F8B81013448B4280F09080D0F8A5
S315202C51D0BC3043F22358D0F8B400296818440CF07C
S315202C51E0F7FBD4F8BC306A681344C4F8BC3028E0EA
S315202C51F0D4F8BC202E68501CC4F8BC00D4F8B400BB
S315202C5200F65C8654D4F8BC20D4F8B800824201D35C
S315202C5210C4F8BC10D4F8BC60D4F8C02096420CD16B
S315202C5220D4F8C0200132C4F8C020D4F8C020904233
S315202C523001D8C4F8C01043F2265801336A689A4222
S315202C5240D6D8D4F8BC30D4F8B820D4F8C0601344BF
S315202C52509B1BB3FBF2F602FB163663680BB3636813
S315202C52609B68F3B16368DA6863681B699A420CD928
S315202C527063680021DB688A46626812699B1AB342EE
S315202C528028BF33468B4237D8F61A6368DA686368A8
S315202C52901B699A4205D863681B7D002B51D1626805
S315202C52A09360616832462046FFF772FF76B1002361
S315202C52B0C5E9003663684BB16368DB6933B1636833
S315202C52C0424660682946DB69006A9847228848F658
S315202C52D041739A4207D1D4F8B82020466168013A06
S315202C52E0921BFFF755FF87F31088BDE8F087002324
S315202C52F043F223581946A1E7D4F8C0E0D4F80490F9
S315202C53006268D2F810C0D4F8B42012F80EE0D9F87E
S315202C5310082002F80CE0D4F8C020D4F8B8000132CA
S315202C5320C4F8C020D4F804C0DCF810200132CCF804
S315202C53301020D4F8C020824201D3C4F8C0A0013159
S315202C5340A0E7636800222046DA82FFF7E9FEA8E769
S315202C53502DE9F0410E461746054600B9FEE701B960
S315202C5360FEE700F1C4084046FFF7C4FE0446B8B158
S315202C53704046FFF7A9FE2846FFF7BEFE7368E78254
S315202C53802361237D012B09D1214605F1D000FFF77E
S315202C539080FE2846BDE8F041FFF7C2BE0023A3605D
S315202C53A0BDE8F081704700002DE9F8431E460446DF
S315202C53B000B9FEE701B9FEE702B9FEE7856905B912
S315202C53C0FEE7406A224B9842FDD1012E02D1E36999
S315202C53D0002BFCD0EFF3108872B6A3682BB188F380
S315202C53E0108843F22250BDE8F88305F1C409E26007
S315202C53F0A160236148462675FFF77CFE2146074689
S315202C54004846FFF746FE88F3108847B12EB905F19A
S315202C54100C06E26823699A4207D80020E3E728463F
S315202C5420FFF76AFE0028F1D0DDE7EFF305835BB1A9
S315202C5430EFF3108772B6AB78012B02D1304600F0F1
S315202C5440F8F987F31088E4E70120FFF7ABFFE0E7B4
S315202C54505457BBAA704700002DE9F341089D0E46F0
S315202C54601F46044600B9FEE701B9FEE702B9FEE75E
S315202C5470806900B9FEE7616A514B9942FDD1012F13
S315202C548002D1E369002BFCD0EFF3108872B6A16809
S315202C549031B188F3108843F2225002B0BDE8F08156
S315202C54A0012AE260A6602161277527D1D0F8BC207D
S315202C54B0D0F8C0309A4218D0D0F8C0202369D0F822
S315202C54C0B4C003F1010EC4F810E01CF80220F254EB
S315202C54D0D0F8C0300133C0F8C030D0F8B830D0F86E
S315202C54E0C0209A4201D3C0F8C010002D47D0236982
S315202C54F000202B60A06088F31088CEE7D0F8B8E087
S315202C5500D0F8BC30D0F8C0C073442161A3EB0C0377
S315202C5510B3FBFEFC0EFB1C338E469A4228BF1A4642
S315202C55202369934211D3D0F8B830D0F8BC20D0F8C8
S315202C5530C0101A44521AB2FBF3F103FB1122013B81
S315202C554021469A1AFFF724FECFE7D0F8C030D0F8A0
S315202C5550B410D4F810C0CB5C06F80C30D0F8C03080
S315202C5560D0F8B8100133C0F8C030D0F8C0308B42F8
S315202C557001D3C0F8C0E0236901332361D0E7226927
S315202C5580E3689A4210D3A56088F31088012F0FD197
S315202C5590E3690BB9002080E722696946206A0192CB
S315202C55A02A4600969847F5E788F31088002FF1D1E4
S315202C55B0E26823699A42EDD90120FFF74BFFF7E7E2
S315202C55C04452AABB70B504460D4601B9FEE700B974
S315202C55D0FEE70B6803B9FEE74B6803B9FEE74FF4E9
S315202C55E0927200210CF01CFA6B8923802B7AA370E3
S315202C55F0012B2A68C4F8B4206A68C4F8B82013D1C1
S315202C560004F10C06E968304600F0C4F8054648B982
S315202C561022460749304600F000F9224605493046F5
S315202C562000F001F9284670BD43F22155FAE700BF58
S315202C563051532C20A7512C2038B50D46044600B9A1
S315202C5640FEE701B9FEE7EFF3108272B683680133C9
S315202C5650836082F3108848F6417302889A4202D1DD
S315202C56608861002038BD2C22002128460CF0D8F940
S315202C5670014BAC616B62F4E75457BBAAF8B50C46C8
S315202C5680054600B9FEE701B9FEE7028848F64173C4
S315202C56909A4202D188610020F8BDEFF3108772B6AA
S315202C56A0466866B941602C22314620460CF0B8F962
S315202C56B0044B3046A561636287F31088ECE743F2EE
S315202C56C02250F9E74452AABB0123FFF76DBE0023D3
S315202C56D007B500930123FFF7BFFE03B05DF804FB4B
S315202C56E010B500B9FEE7446A034B9C42FDD1C0E9B4
S315202C56F00712002010BD00BF5457BBAA10B500B905
S315202C5700FEE7446A034B9C42FDD1C0E907120020D8
S315202C571010BD00BF4452AABB13B5144602B9FEE7EE
S315202C572042F6AC7399420FD1104600F027FA236F1C
S315202C573043B104F17A026946606F009201220192EC
S315202C57400022984702B010BD42F6AB739942F9D18C
S315202C575092F86C30002BF5D00022636E84F86C20E6
S315202C5760002BEFD0E16DA06E0091216E0191694640
S315202C5770E7E7012200F17A0110B580F8782004465B
S315202C578000F080F920B1002343F2215084F87830A0
S315202C579010BD000070B504460E4601B9FEE700B9CF
S315202C57A0FEE700F0C1F80546002DFDD1B37A22463E
S315202C57B00849204684F8793000F046F994F8793057
S315202C57C0012B04D12046BDE87040FFF7D2BF2846D6
S315202C57D070BD00BF19572C2070B500B9FEE701B952
S315202C57E0FEE702B9FEE790F86C604EB90126C0E9B7
S315202C57F0171280F86C6000F083F90028FDD170BD5B
S315202C580043F22250FBE700B9FEE790F87930012BC2
S315202C581001D1FFF7AEBF0020704700B9FEE7C0E9E3
S315202C582019120020704700B9FEE7C0E91C1200208F
S315202C5830704700B9FEE700F0CBB90000354B70B5A8
S315202C584053F8204034B9344B40F24711334A34486C
S315202C58500BF030FF334B53F82050284602F08AFDAC
S315202C5860820206462BD5284602F06EFD830226D5CB
S315202C5870E36823B3E1686269531C6361AB6918053D
S315202C588007D423F4FD6323F005031B051B0D022BE4
S315202C58903CD1EB6903F07F038B54626923699A42CE
S315202C58A00DD34FF00261284602F031FD0023E36030
S315202C58B0636823B1A26842F6AC712046984732021F
S315202C58C01ED5284602F040FD030219D5A369BBB18B
S315202C58D0A269236A591C2162D35CEB61226AE36993
S315202C58E09A420DD34FF40001284602F010FD0023D6
S315202C58F0A361636823B1A26842F6AB712046984710
S315202C590031462846BDE8704002F040BDEB69DBB23B
S315202C5910C2E700BF988900202A532D205E542D20C3
S315202C59203D532D20F8542D2070B50C4686B00546B7
S315202C593030B93A4B40F21D21394A3A480BF0BAFE7F
S315202C594021B9394B40F21E21354AF6E78B7B0C2B9D
S315202C595004D9364B40F21F21314AEEE7344E56F805
S315202C5960233023B9334B4FF408712D4AE5E701A890
S315202C597002F096FC6368226801A90193237A8DF89C
S315202C59800830637A8DF80B30A37A003B18BF01239D
S315202C59908DF81530E37A003B18BF01238DF814308F
S315202C59A0237B003B18BF01238DF80E30637B003BF5
S315202C59B018BF01238DF80F3040F20113ADF81230A9
S315202C59C0A37B56F8230002F079FBA0B9A37B1A49B6
S315202C59D02B70E27B6A70194A42F8235031F9132036
S315202C59E031F81330002A0ADA03F00F03144A1A442A
S315202C59F02023137601E042F6AF7006B070BD114C11
S315202C5A002025A11881F80053012103F01F035209E8
S315202C5A1001FA03F344F82230EFE700BF89532D20F7
S315202C5A2076542D203D532D2098532D20A7532D20B1
S315202C5A30F8542D20F0532D202C552D2098890020DC
S315202C5A40FCEC00E000E100E008B530B9094B40F24F
S315202C5A503231094A09480BF02DFE4378012B04D10B
S315202C5A60074B40F23631044AF4E7C0E901120020F4
S315202C5A7008BD00BF89532D2083542D203D532D2026
S315202C5A8037542D2010B530B9164B4FF45071164A79
S315202C5A9016480BF00FFE21B9154B40F24131124A14
S315202C5AA0F6E722B9134B40F242310F4AF0E74378FE
S315202C5AB0012B04D1104B40F246310B4AE8E7C4683F
S315202C5AC064B902610D4B02784461C1604FF00261CA
S315202C5AD053F8220002F002FC204610BD42F6AA7092
S315202C5AE0FBE700BF89532D209B542D203D532D2081
S315202C5AF01E542D202B542D2037542D20F8542D2058
S315202C5B0010B530B9164B40F25B31164A16480BF0BD
S315202C5B10D1FD21B9154B4FF45771124AF6E722B90C
S315202C5B20134B40F25D310F4AF0E74378012B04D119
S315202C5B30104B40F261310B4AE8E7846964B9C261A3
S315202C5B400D4B0278046281614FF4000153F8220038
S315202C5B5002F0C4FB204610BD42F6A970FBE700BF1D
S315202C5B6089532D20B6542D203D532D201E542D20C7
S315202C5B702B542D2037542D20F8542D2010B5044687
S315202C5B8030B90E4B40F292310D4A0E480BF092FD55
S315202C5B904378012B04D10C4B40F29631084AF4E77A
S315202C5BA0C3684BB1094B4FF00261027853F822009F
S315202C5BB002F0ADFB0023E360002010BD89532D207D
S315202C5BC0CE542D203D532D2037542D20F8542D20C6
S315202C5BD008B530B9054B40F2DB31054A05480BF0A8
S315202C5BE069FD0078BDE80840FFF728BE89532D2093
S315202C5BF0E3542D203D532D20012008B5FFF71EFE02
S315202C5C00BFF34F8F08BD022008B5FFF717FEBFF351
S315202C5C104F8F08BD032008B5FFF710FEBFF34F8F1B
S315202C5C2008BD042008B5FFF709FEBFF34F8F08BD2A
S315202C5C30052008B5FFF702FEBFF34F8F08BD0620BF
S315202C5C4008B5FFF7FBFDBFF34F8F08BD072008B51E
S315202C5C50FFF7F4FDBFF34F8F08BD082008B5FFF7DB
S315202C5C60EDFDBFF34F8F08BD10B506281FD8DFE8F2
S315202C5C7010F0070036007800C00008014C017A018C
S315202C5C80D048B1B1D0F8201821F48031C0F8201892
S315202C5C90D0F8201821F0FF010A43C0F82028C0F89C
S315202C5CA03038D0F8003583F48033C0F80035002006
S315202C5CB014E0D0F8203843F48033C0F82038D0F8BC
S315202C5CC0203823F0FF031A43C0F82028D0F80035BB
S315202C5CD083F48033C0F80035D0F8400810BDB9487D
S315202C5CE0F9B1D0F85048D0F8501804F4007421F4A7
S315202C5CF08031C0F85018D0F8501821F0FF010A43F3
S315202C5D00C0F85028C0F86038D0F8503883F4807307
